:020000040800F2
:100000000028002091030008790300087B03000802
:100010007D0300087F030008810300080000000042
:100020000000000000000000000000008303000842
:10003000850300080000000087030008890300080A
:10004000D9030008D9030008D9030008D903000820
:10005000D9030008D9030008D9030008D903000810
:10006000D9030008D9030008D9030008D903000800
:10007000D9030008D9030008D9030008D9030008F0
:10008000D9030008D9030008D9030008D9030008E0
:10009000D9030008D9030008D9030008D9030008D0
:1000A000D9030008D9030008D9030008D9030008C0
:1000B000D9030008D903000800000000D903000894
:1000C000D90300080000000000000000D903000868
:1000D00000000000D9030008D90300080000000058
:1000E000D9030008D9030008D90300080000000064
:1000F0000000000000000000000000000000000000
:0C01000000000000000000005FF808F1A3
:10010C0010B5054C237833B9044B13B10448AFF345
:10011C0000800123237010BD180000200000000097
:10012C00B811000808B5034B1BB103490348AFF3E2
:10013C00008008BD000000001C000020B811000861
:10014C0010B590B02022002107A801F027F8142246
:10015C00002101A801F022F8102301220224CDE98C
:10016C000A234FF4601306A806940D940F9300F025
:10017C00BDFA08B172B6FEE70F23CDE901344FF496
:10018C0080630390CDE90430214601A800F084FC83
:10019C0008B172B6FEE710B010BD0000F0B589B022
:1001AC0000F03AF9FFF7CCFF102200210DEB020012
:1001BC0000F0F4FF444B4FF400519A69434842F06D
:1001CC0010029A619A69002402F010020292029ABB
:1001DC009A69012742F004029A619B69002203F09C
:1001EC0004030393039B00F07BFA00220E21384892
:1001FC0000F076FA02264FF40053344804A9CDE9F6
:10020C000437CDE9064600F095F90E23304804A9D1
:10021C00CDE90437CDE9064600F08CF94FF4827332
:10022C002C4D2D494FF40070C5E900134FF40043D9
:10023C00C5E902340823C5E906030A232846C5E9A3
:10024C000844AC62C5E90467EB6200F025FD044686
:10025C0008B172B6FEE7284600F0A4FE304600F066
:10026C00DFFE25464FF478464FF6E077EA07C4F1F7
:10027C009F01C4F17F03224620464CBF0097009695
:10028C00C9B2DBB2023400F0FFFEE4B2642000F02D
:10029C00E7F8502C05F10105E8D140F6B83000F034
:1002AC00DFF81F2000F02CFF012000F01FFF4FF49F
:1002BC007A7000F0D5F8082000F018FF4FF47A702F
:1002CC0000F0CEF8F0E700BF001002400010014033
:1002DC000008014034000020003001400A4B82B07D
:1002EC009A6942F001029A619A6902F00102009245
:1002FC00009ADA6942F08052DA61DB6903F08053CC
:10030C000193019B02B070470010024010B50446E7
:10031C0086B01022002102A800F040FF2268114B89
:10032C009A421DD103F560439A690F4842F48052FA
:10033C009A619A6902A902F480520092009A9A6911
:10034C0042F004029A619B69A02203F0040301931A
:10035C00019B0223CDE902230323059300F0EAF865
:10036C0006B010BD0030014000080140FEE7FEE77A
:10037C00FEE7FEE7FEE770477047704700F05EB897
:10038C00704700000C480D490D4A002302E0D45878
:10039C00C4500433C4188C42F9D30A4A0A4C0023C3
:1003AC0001E013600432A242FBD3FFF7E9FF00F037
:1003BC00D1FEFFF7F3FE704700000020180000206C
:1003CC00FC1100081800002098000020FEE7000037
:1003DC0038B50E4B054618784FF47A73B3FBF0F32F
:1003EC000B4A1068B0FBF3F000F090F8044658B9D3
:1003FC000F2D09D8024629464FF0FF3000F054F873
:10040C002046044B1D6038BD0120FCE70400002091
:10041C000000002008000020074A08B513680320DC
:10042C0043F01003136000F02DF80F20FFF7D0FFFE
:10043C00FFF754FF002008BD00200240034A044B84
:10044C0011681B780B441360704700BF8C000020B0
:10045C0004000020014B1868704700BF8C0000207E
:10046C0038B50446FFF7F6FF0546631C1EBF044B68
:10047C001B78E418FFF7EEFF431BA342FAD338BDF9
:10048C000400002007490302CA6803F4E06322F465
:10049C00E0621204120C134343F0BF6343F40033C5
:1004AC00CB60704700ED00E0164B30B5DC68C4F350
:1004BC000224C4F10703251D042B28BF0423062D99
:1004CC004FF0FF3598BF002405FA03F388BF033CB7
:1004DC0021EA0303A34005FA04F422EA04020028EB
:1004EC0043EA0203ACBF00F16040074A4FEA031332
:1004FC00DBB2ABBF00F5614000F00F0080F80033B9
:10050C00135430BD00ED00E014ED00E00138B0F103
:10051C00807F0BD24FF0E023F021054A586182F81E
:10052C0023100020072298611A6170470120704740
:10053C0000ED00E02DE9F74F00221646614F624BAB
:10054C00DFF888C1DFF888E10D6835FA06F402D1CE
:10055C0003B0BDE8F08F4FF0010808FA06F805EA81
:10056C00080438EA050577D14D68032D07D8013DFD
:10057C00022D00F28280DFE805F092979D00122D8B
:10058C0000F095806AD8112D00F08B80FF2C98BF5D
:10059C0082464FF00F0988BF00F1040A4FEA860526
:1005AC00DAF8008088BF203D09FA05FB28EA0B0821
:1005BC0002FA05F548EA0505CAF80050D1F804A07E
:1005CC001AF0805F48D0BD6926F0030845F001059C
:1005DC00BD61BD6908F1804805F00105019508F57C
:1005EC00803806F0030B019D4FEA8B0BD8F80850AE
:1005FC0009FA0BF925EA0909364DA8425ED005F532
:10060C008065A8425CD005F58065A8420CBF022528
:10061C00032505FA0BF545EA0905C8F808501D68CD
:10062C001AF4803F14BF2543A5431D605D681AF47E
:10063C00003F14BF2543A5435D609D681AF4801FDD
:10064C0014BF2543A5439D60DD681AF4001F14BF39
:10065C002C4325EA0404DC60013675E7DFF878905A
:10066C004D450AD015D8754507D0A9F580394D45AB
:10067C0003D0A9F580194D4588D18A68E2B1012AC9
:10068C0008BFC0F810804FF0080218BFC0F81480E3
:10069C007CE7DFF848904D45EFD06545ECE7CA683C
:1006AC0074E7CA68043271E7CA6808326EE7CA6830
:1006BC000C326BE7002269E7042267E70025A8E704
:1006CC000125A6E700100240000401400000321092
:1006DC000000121000080140000022100000311030
:1006EC000AB1016170470904FBE700002DE9F341F1
:1006FC00054638B30368DB0710D42B689F075ED41C
:10070C002B68190700F195802B685A0700F1C180FE
:10071C00E869002840F02C81002029E0904C6368A7
:10072C0003F00C03042B07D0636803F00C03082BB5
:10073C000AD16368DE0307D523689C03DDD56B689B
:10074C00002BDAD1012013E06B68B3F5803F12D196
:10075C00236843F480332360FFF77CFE064623684E
:10076C009803CAD4FFF776FE801B6428F7D90320C0
:10077C0002B0BDE8F0819BB9236823F48033236079
:10078C00236823F480232360FFF764FE0646236866
:10079C009903B2D5FFF75EFE801B6428F7D9E6E714
:1007AC00B3F5A02F236803D143F480232360CFE754
:1007BC0023F480332360236823F48023CBE7684C35
:1007CC00636813F00C0F07D0636803F00C03082B5D
:1007DC0010D16368DA030DD423689B0702D52B690B
:1007EC00012BAFD123686A6923F0F80343EAC203F3
:1007FC00236085E72A695B4B6AB101221A60FFF717
:10080C0029FE064623689F07ECD4FFF723FE801BC6
:10081C000228F7D9ABE71A60FFF71CFE06462368DF
:10082C0098077FF56DAFFFF715FE801B0228F6D9F0
:10083C009DE7AA694A4E4B4BE2B10122C3F88024D2
:10084C00FFF708FE0446736A9B070DD54FF4FA5266
:10085C00454B1B68B3FBF2F3019300BF019B5A1E7F
:10086C000192002BF9D14FE7FFF7F4FD001B022892
:10087C00E9D97CE7C3F88024FFF7ECFD0446736AE2
:10088C009F077FF541AFFFF7E5FD001B0228F6D966
:10089C006DE7334CE369D80024D40127E36943F0B6
:1008AC008053E361E36903F080530093009B2F4E68
:1008BC003368D90518D5EB68012B26D1236A43F090
:1008CC0001032362FFF7C6FD41F288380646236A0E
:1008DC009B073FD5002F3FF41BAFE36923F08053F8
:1008EC00E36115E70027E2E7336843F48073336074
:1008FC00FFF7B0FD80463368DA05DCD4FFF7AAFDBC
:10090C00A0EB08006428F6D931E7ABB9236A41F2B1
:10091C00883823F001032362236A23F00403236243
:10092C00FFF798FD0646236A9807D3D5FFF792FD8B
:10093C00801B4045F7D91AE7052B236A03D143F0F6
:10094C0004032362BAE723F001032362236A23F032
:10095C000403B6E7FFF77EFD801B4045B7D906E7D9
:10096C0000100240000042420000002000700040D5
:10097C002A4C636803F00C03082B3ED00022284B52
:10098C0002281A662CD1FFF765FD064623689901EB
:10099C0020D42B6AB3F5803F05D16268A96822F494
:1009AC0000320A436260696A62680B4322F4741273
:1009BC001343012263601A4B1A66FFF74BFD054681
:1009CC0023689A013FF5A8AEFFF744FD401B0228AF
:1009DC00F6D9CCE6FFF73EFD801B0228D6D9C6E639
:1009EC00FFF738FD054623689B017FF595AEFFF7B1
:1009FC0031FD401B0228F6D9B9E601283FF4B8AE08
:100A0C0063682A6A03F4803191427FF49BAE6A6A70
:100A1C0003F4701393423FF47FAE93E60010024050
:100A2C000000424230B5184B87B002AC03F1100500
:100A3C00224618685968083303C2AB421446F7D1F2
:100A4C0040F201231149ADF804304B6803F00C025D
:100A5C00082A17D1C3F3834218326A44DB0312F815
:100A6C00100C0CD54B680A4AC3F34043504318335F
:100A7C006B4413F8143CB0FBF3F007B030BD054BDE
:100A8C005843FAE70248F8E7E0110008001002406A
:100A9C0000127A0000093D002DE9F0410D46044694
:100AAC0010B90120BDE8F081444A136803F0070334
:100ABC008B4228D321688E0730D4CA0743D43F4ACF
:100ACC00136803F00703AB4265D822683C4D12F063
:100ADC00040F6CD1130706D56B68226923F460539D
:100AEC0043EAC2036B60FFF79DFF6B68354AC3F3A3
:100AFC000313D35CD840344B1860344B1868FFF7A1
:100B0C0067FC0020CEE7136823F007030B43136048
:100B1C00136803F007038B42C3D1CBE7284B11F0CA
:100B2C00040F1EBF5A6842F4E0625A60080742BFC5
:100B3C005A6842F460525A605A68A06822F0F00277
:100B4C0002435A60B9E762681D4E012A33681AD114
:100B5C0013F4003FA5D0736841F2883823F00303E7
:100B6C0013437360FFF776FC07467368626803F003
:100B7C000C03B3EB820FA2D0FFF76CFCC01B4045FB
:100B8C00F3D903208EE7022A02D113F0007FE1E7AC
:100B9C0013F0020FDEE7136823F007032B431360F7
:100BAC00136803F00703AB427FF47BAF8DE76B68F0
:100BBC00E16823F4E0630B436B608BE70020024099
:100BCC0000100240D0110008000000200800002096
:100BDC002DE9F3411C4616460F460546FFF73AFC35
:100BEC003444241AFFF736FC8046234B1B68C3F3AE
:100BFC00CB3363432A680193936837EA030301D02C
:100C0C0000202EE0731CF7D0FFF724FCA0EB0800AB
:100C1C00A04229D32B685A6822F0E0025A606A6815
:100C2C00B2F5827F0AD1AA68B2F5004F02D0B2F5B4
:100C3C00806F03D11A6822F040021A60AA6AB2F5DA
:100C4C00005F07D11A6822F400521A601A6842F445
:100C5C0000521A60012385F851300023032085F8D7
:100C6C00503002B0BDE8F081019B002B019B08BF06
:100C7C000024013BBEE700BF0000002010B5134666
:100C8C000A4680210446FFF7A3FF20B10320636DC1
:100C9C0043F02003636510BD10B50446002851D005
:100CAC00436A002B4AD14268B2F5827F00D0C361FF
:100CBC000023A36294F8513003F0FF0223B92046BD
:100CCC0084F85020FFF722FB0223226884F851306D
:100CDC001368A06823F040031360636800F40440B9
:100CEC0003F482730343E068A16900F400600343DA
:100CFC00206900F002000343606900F00100034327
:100D0C0001F400700343E069090C00F03800034360
:100D1C00206A01F0040100F080000343A06A00F493
:100D2C000050034313605160D369002023F4006327
:100D3C00D3610123606584F8513010BD0023C0E9F4
:100D4C000433B5E70120F8E72DE9F3411E4690F88E
:100D5C0050300446012B0D46174600F0A0800123AD
:100D6C0080F85030FFF776FB94F851308046012B19
:100D7C00D8B240F09280002D5DD0002F5BD00323C1
:100D8C0084F851300023A2686365B2F5004FC4E9C2
:100D9C001033E786A363A387E38725632368A786BD
:100DAC0007D11A6822F040021A601A6842F4804295
:100DBC001A601A68E16852065EBF1A6842F0400277
:100DCC001A60B1F5006F626841D10AB1012F07D1E9
:100DDC0035F8022BDA602563E38E013B9BB2E38688
:100DEC00E38E9BB2A3B9424631462046FFF746FF3D
:100DFC0000284FD1A36833B901932368DA680192B4
:100E0C009B680193019B606D003818BF012012E0B4
:100E1C0022689368980705D5236B33F8021BD160C1
:100E2C002363D9E7FFF716FBA0EB0800B0420BD306
:100E3C00711CD5D00320012384F85130002384F891
:100E4C00503002B0BDE8F081002EC9D1F2E70AB1F2
:100E5C00012F08D12A781A73236B01332363E38E95
:100E6C00013B9BB2E386E38E9BB2002BBBD0236885
:100E7C009A68920702D5226B1278ECE7FFF7EAFA30
:100E8C00A0EB0800B04202D3731CECD0D2E7002ECA
:100E9C00E9D1CFE720236365ACE70220CBE7022042
:100EAC00CFE7000013B50B4C8DF80700E3680A4838
:100EBC0023F00403E36001224FF47A730DF1070170
:100ECC000068FFF741FFE36843F00403E36002B0FE
:100EDC0010BD00BF000801409400002010B5064C66
:100EEC00E36823F00203E360FFF7DCFFE36843F001
:100EFC000203E36010BD00BF000801400A46014632
:100F0C0002484FF47A730068FFF71EBF940000206C
:100F1C0038B50A4D0A4C68702A20E970FFF7DEFFDD
:100F2C00E368042123F00403E3602846FFF7E6FF9F
:100F3C00E36843F00403E36038BD00BF0F000020FA
:100F4C000008014038B50A4D0A4C68702B20E97036
:100F5C00FFF7C4FFE368042123F00403E360284691
:100F6C00FFF7CCFFE36843F00403E36038BD00BF38
:100F7C00130000200008014038B514461D46FFF749
:100F8C00C7FF29462046BDE83840FFF7DBBF10B548
:100F9C0004463A20FFF7A2FF2046BDE81040FFF7B9
:100FAC0081BF000010B51A4B1A4C1860E36805207D
:100FBC0043F00403E360E36843F00803E360E36891
:100FCC0043F00203E360E36823F00803E360FFF7F8
:100FDC0047FAE368C82043F00803E360FFF740FAE0
:100FEC001120FFF77BFF2920FFF778FF4FF4967055
:100FFC00FFF736FA0520FFF7CAFFBDE81040064A96
:10100C000648D378C17852784078FFF7B5BF00BF57
:10101C009400002000080140130000200F00002065
:10102C00002310B5164C2370164B987003280BD860
:10103C00DFE800F00602121D227862F03F022270F7
:10104C00A0221A7080225A703620FFF747FF2078B2
:10105C00BDE81040FFF726BF80221A70A0225A70FC
:10106C00237823F0600343F060032370ECE78022C5
:10107C001A70A0225A70237863F05F03F5E700BF63
:10108C00900000200C0000202DE9F3411C4617466F
:10109C0080460D46BDF82060FFF76EFF2C20FFF751
:1010AC001DFF330A8DF805600F4E8DF80430F36880
:1010BC00A5EB080523F00403F360E31B013305FBE8
:1010CC0003340025ABB2A34205F1010506DBF3683E
:1010DC0043F00403F36002B0BDE8F081022101A8E3
:1010EC00FFF70CFFEEE700BF0008014010B5044607
:1010FC002620FFF7F3FE2046BDE81040FFF7D2BED6
:10110C0037B500220446114910460B784978FFF791
:10111C0033FF2C20FFF7E2FE230A8DF805404FF435
:10112C00A0440B4D8DF80430EB6823F00403EB6006
:10113C00013C022101A8A4B2FFF7E0FE002CF7D17C
:10114C00EB6843F00403EB6003B030BD0C000020EF
:10115C000008014070B500260C4D0D4C641BA4100A
:10116C00A64209D100F022F800260A4D0A4C641B55
:10117C00A410A64205D170BD55F8043B9847013622
:10118C00EEE755F8043B98470136F2E7F4110008F6
:10119C00F4110008F4110008F81100080346024489
:1011AC00934200D1704703F8011BF9E7F8B500BF73
:1011BC00F8BC08BC9E467047F8B500BFF8BC08BC2C
:0411CC009E46704784
:1011D00000000000000000000102030406070809E7
:1011E00002030405060708090A0B0C0D0E0F101068
:0411F00000000000FB
:0411F40031010008BD
:0411F8000D010008DD
:1011FC000024F4000100000010000000A08000009A
:08120C0000007F0000009F00BC
:04000005080003915B
:00000001FF
